{
  "contractName": "Log",
  "abi": [
    {
      "constant": true,
      "inputs": [],
      "name": "contractVersion",
      "outputs": [
        {
          "name": "",
          "type": "string"
        }
      ],
      "payable": false,
      "stateMutability": "view",
      "type": "function"
    },
    {
      "inputs": [],
      "payable": false,
      "stateMutability": "nonpayable",
      "type": "constructor"
    },
    {
      "payable": false,
      "stateMutability": "nonpayable",
      "type": "fallback"
    },
    {
      "anonymous": false,
      "inputs": [
        {
          "indexed": true,
          "name": "owner",
          "type": "address"
        },
        {
          "indexed": true,
          "name": "buyer",
          "type": "address"
        },
        {
          "indexed": false,
          "name": "work",
          "type": "address"
        },
        {
          "indexed": true,
          "name": "license",
          "type": "address"
        },
        {
          "indexed": false,
          "name": "money",
          "type": "uint256"
        },
        {
          "indexed": false,
          "name": "purpose",
          "type": "uint256"
        },
        {
          "indexed": false,
          "name": "nowTime",
          "type": "uint256"
        }
      ],
      "name": "listen",
      "type": "event"
    },
    {
      "anonymous": false,
      "inputs": [
        {
          "indexed": true,
          "name": "sharer",
          "type": "address"
        },
        {
          "indexed": true,
          "name": "work",
          "type": "address"
        },
        {
          "indexed": false,
          "name": "money",
          "type": "uint256"
        },
        {
          "indexed": false,
          "name": "nowTime",
          "type": "uint256"
        }
      ],
      "name": "share",
      "type": "event"
    },
    {
      "anonymous": false,
      "inputs": [
        {
          "indexed": true,
          "name": "owner",
          "type": "address"
        },
        {
          "indexed": false,
          "name": "title",
          "type": "string"
        },
        {
          "indexed": false,
          "name": "artist",
          "type": "string"
        },
        {
          "indexed": false,
          "name": "nowTime",
          "type": "uint256"
        }
      ],
      "name": "workReleased",
      "type": "event"
    },
    {
      "anonymous": false,
      "inputs": [
        {
          "indexed": true,
          "name": "owner",
          "type": "address"
        },
        {
          "indexed": false,
          "name": "work",
          "type": "address"
        },
        {
          "indexed": true,
          "name": "lisence",
          "type": "address"
        },
        {
          "indexed": true,
          "name": "title",
          "type": "bytes32"
        },
        {
          "indexed": false,
          "name": "artist",
          "type": "bytes32"
        },
        {
          "indexed": false,
          "name": "nowTime",
          "type": "uint256"
        }
      ],
      "name": "licenseReleased",
      "type": "event"
    },
    {
      "anonymous": false,
      "inputs": [
        {
          "indexed": false,
          "name": "sender",
          "type": "address"
        },
        {
          "indexed": false,
          "name": "version",
          "type": "uint256"
        },
        {
          "indexed": false,
          "name": "nowTime",
          "type": "uint256"
        }
      ],
      "name": "licenseUpdate",
      "type": "event"
    },
    {
      "constant": false,
      "inputs": [
        {
          "name": "owner",
          "type": "address"
        },
        {
          "name": "buyer",
          "type": "address"
        },
        {
          "name": "work",
          "type": "address"
        },
        {
          "name": "license",
          "type": "address"
        },
        {
          "name": "money",
          "type": "uint256"
        },
        {
          "name": "purpose",
          "type": "uint256"
        }
      ],
      "name": "listenEvent",
      "outputs": [],
      "payable": false,
      "stateMutability": "nonpayable",
      "type": "function"
    },
    {
      "constant": false,
      "inputs": [
        {
          "name": "buyer",
          "type": "address"
        },
        {
          "name": "work",
          "type": "address"
        },
        {
          "name": "money",
          "type": "uint256"
        }
      ],
      "name": "shareEvent",
      "outputs": [],
      "payable": false,
      "stateMutability": "nonpayable",
      "type": "function"
    },
    {
      "constant": false,
      "inputs": [
        {
          "name": "version",
          "type": "uint256"
        }
      ],
      "name": "licenseUpdateEvent",
      "outputs": [],
      "payable": false,
      "stateMutability": "nonpayable",
      "type": "function"
    },
    {
      "constant": false,
      "inputs": [
        {
          "name": "owner",
          "type": "address"
        },
        {
          "name": "title",
          "type": "string"
        },
        {
          "name": "artist",
          "type": "string"
        }
      ],
      "name": "workReleasedEvent",
      "outputs": [],
      "payable": false,
      "stateMutability": "nonpayable",
      "type": "function"
    },
    {
      "constant": false,
      "inputs": [
        {
          "name": "owner",
          "type": "address"
        },
        {
          "name": "work",
          "type": "address"
        },
        {
          "name": "lisence",
          "type": "address"
        },
        {
          "name": "title",
          "type": "bytes32"
        },
        {
          "name": "artist",
          "type": "bytes32"
        }
      ],
      "name": "licenseReleasedEvent",
      "outputs": [],
      "payable": false,
      "stateMutability": "nonpayable",
      "type": "function"
    }
  ],
  "bytecode": "0x608060405234801561001057600080fd5b50600034111561001f57600080fd5b6108168061002e6000396000f300608060405260043610610078576000357c0100000000000000000000000000000000000000000000000000000000900463ffffffff1680632b5e2d281461008a5780637277cf7914610141578063841cf3cd146101e05780638b39b01c146102af578063a0a8e460146102dc578063db54f5051461036c575b34801561008457600080fd5b50600080fd5b34801561009657600080fd5b5061013f600480360381019080803573ffffffffffffffffffffffffffffffffffffffff169060200190929190803573ffffffffffffffffffffffffffffffffffffffff169060200190929190803573ffffffffffffffffffffffffffffffffffffffff169060200190929190803573ffffffffffffffffffffffffffffffffffffffff16906020019092919080359060200190929190803590602001909291905050506103d9565b005b34801561014d57600080fd5b506101de600480360381019080803573ffffffffffffffffffffffffffffffffffffffff169060200190929190803573ffffffffffffffffffffffffffffffffffffffff169060200190929190803573ffffffffffffffffffffffffffffffffffffffff169060200190929190803560001916906020019092919080356000191690602001909291905050506104af565b005b3480156101ec57600080fd5b506102ad600480360381019080803573ffffffffffffffffffffffffffffffffffffffff169060200190929190803590602001908201803590602001908080601f0160208091040260200160405190810160405280939291908181526020018383808284378201915050505050509192919290803590602001908201803590602001908080601f0160208091040260200160405190810160405280939291908181526020018383808284378201915050505050509192919290505050610572565b005b3480156102bb57600080fd5b506102da600480360381019080803590602001909291905050506106ad565b005b3480156102e857600080fd5b506102f1610731565b6040518080602001828103825283818151815260200191508051906020019080838360005b83811015610331578082015181840152602081019050610316565b50505050905090810190601f16801561035e5780820380516001836020036101000a031916815260200191505b509250505060405180910390f35b34801561037857600080fd5b506103d7600480360381019080803573ffffffffffffffffffffffffffffffffffffffff169060200190929190803573ffffffffffffffffffffffffffffffffffffffff1690602001909291908035906020019092919050505061076a565b005b60003411156103e757600080fd5b8273ffffffffffffffffffffffffffffffffffffffff168573ffffffffffffffffffffffffffffffffffffffff168773ffffffffffffffffffffffffffffffffffffffff167f7e6bf8cb11520c07d6438de9c78d05b18bee61917014536587e2699ca59a6d5e87868642604051808573ffffffffffffffffffffffffffffffffffffffff1673ffffffffffffffffffffffffffffffffffffffff16815260200184815260200183815260200182815260200194505050505060405180910390a4505050505050565b60003411156104bd57600080fd5b81600019168373ffffffffffffffffffffffffffffffffffffffff168673ffffffffffffffffffffffffffffffffffffffff167f9213c254cba6514a8e2a06adfa82f8ff1f799a311b52d75f3fbc6808bb550190878542604051808473ffffffffffffffffffffffffffffffffffffffff1673ffffffffffffffffffffffffffffffffffffffff1681526020018360001916600019168152602001828152602001935050505060405180910390a45050505050565b600034111561058057600080fd5b8273ffffffffffffffffffffffffffffffffffffffff167f83a1c78cf87d0a04a52c2fcfe31284360c7b113090ef52c5dc9dbca1fe4efeff838342604051808060200180602001848152602001838103835286818151815260200191508051906020019080838360005b838110156106055780820151818401526020810190506105ea565b50505050905090810190601f1680156106325780820380516001836020036101000a031916815260200191505b50838103825285818151815260200191508051906020019080838360005b8381101561066b578082015181840152602081019050610650565b50505050905090810190601f1680156106985780820380516001836020036101000a031916815260200191505b509550505050505060405180910390a2505050565b60003411156106bb57600080fd5b7f4e2bdccabd29d3761065a23688eaeff046adec45b5277dc704305e0e0493138e338242604051808473ffffffffffffffffffffffffffffffffffffffff1673ffffffffffffffffffffffffffffffffffffffff168152602001838152602001828152602001935050505060405180910390a150565b6040805190810160405280600481526020017f76312e300000000000000000000000000000000000000000000000000000000081525081565b600034111561077857600080fd5b8173ffffffffffffffffffffffffffffffffffffffff168373ffffffffffffffffffffffffffffffffffffffff167fae4aab5c516559125387897539d1e29e27b7f451ee04ab907e43c5bf6f800cb78342604051808381526020018281526020019250505060405180910390a35050505600a165627a7a72305820a8462025ce4d4d7a71e39ab274dd9a9d68e3359d0fb91f009d92b4247ab37b440029",
  "source": "pragma solidity ^0.4.25;\ncontract Log {\n    string public constant contractVersion = \"v1.0\";\n\n    event listen(address indexed owner, address indexed buyer, address work, address indexed license, uint money, uint purpose, uint nowTime);\n    event share(address indexed sharer, address indexed work, uint money, uint nowTime);\n\n    event workReleased(address indexed owner, string title, string artist, uint nowTime);\n    event licenseReleased(address indexed owner, address work, address indexed lisence, bytes32 indexed title, bytes32 artist, uint nowTime);\n    event licenseUpdate(address sender, uint version, uint nowTime);\n\n    modifier noCoins {\n        if (msg.value > 0) throw;\n        _;\n    }\n\n    function Log() noCoins {\n\n    }\n\n    function listenEvent(address owner, address buyer, address work, address license, uint money, uint purpose) noCoins {\n        listen(owner, buyer, work, license, money, purpose, now);\n    }\n\n    function shareEvent(address buyer, address work, uint money) noCoins {\n        share(buyer, work, money, now);\n    }\n\n    function licenseUpdateEvent(uint version) noCoins {\n        licenseUpdate(msg.sender, version, now);\n    }\n\n    function workReleasedEvent(address owner, string title, string artist) noCoins {\n        workReleased(owner, title, artist, now);\n    }\n\n    function licenseReleasedEvent(address owner, address work, address lisence, bytes32 title, bytes32 artist) noCoins {\n        licenseReleased(owner,  work, lisence,title, artist, now);\n    }\n\n    function() {\n        throw;\n    }\n}\n\ncontract Work {\n    string public constant contractVersion = \"v1.0\";\n\n    Log public log;\n    string public title;\n    string public artist;\n    string public metadataUrl;\n    string public imageUrl;\n    uint public authTime;\n\n    function Work(\n        address _logAddress,\n        string _title,\n        string _artist,\n        string _imageUrl,\n        string _metadataUrl\n    ) {\n        log = Log(_logAddress);\n        title = _title;\n        artist = _artist;\n        metadataUrl = _metadataUrl;\n        imageUrl = _imageUrl;\n        authTime = now;\n        log.workReleasedEvent(msg.sender, _title, _artist);\n    }\n\n    function stringToBytes32(string memory source) returns (bytes32 result) {\n        assembly {\n            result := mload(add(source, 32))\n        }\n    }\n\n    function getTitle() public returns (bytes32) {\n        return stringToBytes32(title);\n    }\n\n    function getArtist() public returns (bytes32) {\n        return stringToBytes32(artist);\n    }\n\n    function getAuthTime() returns (uint) {\n        return authTime;\n    }\n}\n\ncontract License {\n    string public constant contractVersion = \"v1.0\";\n\n    address public owner;\n    address public workAddress;\n    string public resourceUrl;\n    string public metadataUrl;\n\n    uint public playPrice;\n    uint public buyPrice;\n    mapping(address => address[]) buyers;// 购买版权人 licenseAddress => userAddress[]\n\n    bool[] public isParent;\n    bool[] public hasParent;\n    uint[] public parents;\n    address[] public contributors;\n    uint[] public shares;\n    bytes32[] public benefitTypes;\n\n    Log private log;\n\n    uint public playCount;\n    uint public buyCount;\n    uint public totalEarned;\n    uint public licenseVersion;\n    uint public metadataVersion;\n    mapping(address => string) private url;\n\n    Work private work;\n\n    event listenEvent(address indexed owner, address indexed buyer, address work, address indexed license, uint money, uint purpose);\n    event shareEvent(address indexed sharer, address indexed work, uint money);\n    event licenseUpdateEvent(uint version);\n\n    function License (\n        address _logAddress,\n        address _workAddress,\n        uint _playPrice,\n        uint _buyPrice,\n        string _resourceUrl,\n        string _metadataUrl,\n        bool[] _isParent,\n        bool[] _hasParent,\n        uint[] _parents,\n        address[] _contributors,\n        uint[] _shares,\n        bytes32[] _benefitTypes\n    ) {\n        log = Log(_logAddress);\n        workAddress = _workAddress;\n        owner = msg.sender;\n        resourceUrl = _resourceUrl;\n        metadataUrl = _metadataUrl;\n\n        validate(\n            _isParent,\n            _hasParent,\n            _parents,\n            _contributors,\n            _shares,\n            _benefitTypes\n        );\n        set(\n            _playPrice,\n            _buyPrice,\n            _isParent,\n            _hasParent,\n            _parents,\n            _contributors,\n            _shares,\n            _benefitTypes\n        );\n\n        work = Work(_workAddress);\n        bytes32 title = work.getTitle();\n        bytes32 artist = work.getArtist();\n        log.licenseReleasedEvent(owner, workAddress, this, title, artist);\n    }\n\n    modifier adminOnly {\n        if (msg.sender != owner) throw;\n        if (msg.value > 0) throw;\n        _;\n    }\n\n    modifier noCoins {\n        if (msg.value > 0) throw;\n        _;\n    }\n\n    function() payable {\n\n    }\n\n    function play(uint8 purpose) payable {\n        uint money;\n        uint count;\n        if(purpose == 1) {\n            money = playPrice * 1 ether;\n        } else if(purpose == 2) {\n            money = buyPrice * 1 ether;\n        } else {\n            money = this.balance;\n        }\n        if(msg.value < money) throw;\n        uint refund = msg.value - money;\n        if(refund>0) {\n            msg.sender.transfer(refund);\n        }\n        if(purpose == 1) {\n            playCount += 1;\n        } else {\n            buyCount += 1;\n            buyers[this].push(msg.sender);\n        }\n        url[msg.sender] = resourceUrl;\n        pay(money);\n        totalEarned += money;\n\n        listenEvent(owner, msg.sender, workAddress, this, money, purpose);\n        log.listenEvent(owner, msg.sender, workAddress, this, money, purpose);\n    }\n\n    function pay(uint money) payable {\n        for (uint i=0; i<shares.length; i++){\n            if (isParent[i] == false) {\n                uint value;\n                if (hasParent[i] == true) {\n                    value = money * shares[i] * shares[parents[i]] / 10000;\n                } else {\n                    value = money * shares[i] / 100;\n                }\n                contributors[i].transfer(value);\n                shareEvent(contributors[i], workAddress, value);\n                log.shareEvent(contributors[i], workAddress, value);\n            }\n        }\n    }\n\n    function isBuyer(address licenseAddr, address buyerAddr) constant returns(bool) {\n        address[] tmps = buyers[licenseAddr];\n        for(uint k=0; k<tmps.length; k++) {\n            if(buyerAddr == tmps[k]) {\n                return true;\n            }\n        }\n        return false;\n    }\n\n    function getPlayInfo() constant returns (address[], uint[], bytes32[]){\n        uint length = 0;\n        for (uint j=0; j<isParent.length; j++){\n            if (isParent[j] == false) {\n                length += 1;\n            }\n        }\n        address[] memory contributorsInfo = new address[](length);\n        uint[] memory sharesInfo = new uint[](length);\n        bytes32[] memory benefitTypesInfo = new bytes32[](length);\n\n        uint m = 0;\n        for (uint i=0; i<shares.length; i++){\n            if (isParent[i] == false) {\n                if (hasParent[i] == true) {\n                    sharesInfo[m] = shares[i] * shares[parents[i]] / 100;\n                } else {\n                    sharesInfo[m] = shares[i];\n                }\n                contributorsInfo[m] = contributors[i];\n                benefitTypesInfo[m] = benefitTypes[i];\n                m += 1;\n            }\n        }\n        return (contributorsInfo, sharesInfo, benefitTypesInfo);\n    }\n\n    function getURL() constant returns(string, bytes32, bytes32, uint) {\n        bytes32 title = work.getTitle();\n        bytes32 artist = work.getArtist();\n        uint authTime = work.getAuthTime();\n        return (url[msg.sender], title, artist, authTime);\n    }\n\n    function validate(\n        bool[] _isParent,\n        bool[] _hasParent,\n        uint[] _parents,\n        address[] _contributors,\n        uint[] _shares,\n        bytes32[] _benefitTypes\n    ) internal {\n        if (\n            _isParent.length != _hasParent.length ||\n            _hasParent.length != _parents.length ||\n            _parents.length != _contributors.length ||\n            _contributors.length != _shares.length ||\n            _shares.length != _benefitTypes.length\n        ) {\n            throw;\n        }\n\n        uint total;\n        for (uint i=0; i<_parents.length; i++) {\n            if (_isParent[i] == true){\n                total += _shares[i];\n            } else if (_hasParent[i] == false) {\n                total += _shares[i];\n            }\n        }\n        if (total != 100) throw;\n\n        for (uint j=0; j<_parents.length; j++) {\n            if (_isParent[j] == true){\n                uint parent_total = 0;\n                for (uint m=0; m<_parents.length; m++) {\n                    if (_parents[m] == j && _hasParent[m] == true) {\n                        parent_total += _shares[m];\n                    }\n                }\n                if (parent_total != 100) throw;\n            }\n        }\n    }\n\n    function set(\n        uint _playPrice,\n        uint _buyPrice,\n        bool[] _isParent,\n        bool[] _hasParent,\n        uint[] _parents,\n        address[] _contributors,\n        uint[] _shares,\n        bytes32[] _benefitTypes\n    ) internal {\n        playPrice = _playPrice;\n        buyPrice = _buyPrice;\n        isParent = _isParent;\n        hasParent = _hasParent;\n        parents = _parents;\n        contributors = _contributors;\n        shares = _shares;\n        benefitTypes = _benefitTypes;\n    }\n\n\n    function updateLicense(\n        uint _playPrice,\n        uint _buyPrice,\n        bool[] _isParent,\n        bool[] _hasParent,\n        uint[] _parents,\n        address[] _contributors,\n        uint[] _shares,\n        bytes32[] _benefitTypes\n    ) adminOnly {\n        validate(\n            _isParent,\n            _hasParent,\n            _parents,\n            _contributors,\n            _shares,\n            _benefitTypes\n        );\n        set(\n            _playPrice,\n            _buyPrice,\n            _isParent,\n            _hasParent,\n            _parents,\n            _contributors,\n            _shares,\n            _benefitTypes\n        );\n    }\n\n    function kill() adminOnly {\n        if (this.balance > 0) {\n            play(3);\n        }\n        selfdestruct(owner);\n    }\n}\n\n// \"0x43c19E3B271C3837d3657cB66aeE0E65FF55322A\",\"0x39300AA9deC409F570F776624D475A0EcEA84aB0\",100,100,\"qq\",\"dd\",[true,false,false,false],[false,true,true,false],[0,0,0,0],[\"0x0\",\"0x4972160fDc51F51f50c0429512e716bDE934c0A4\",\"0x6Cd89eF00282b4a23da80A91Bd395Cd39c9f722D\",\"0xefFf2bA576d3421AA91c27A6F0f6DBAE8079cd2B\"],[50,50,50,50],[\"producer\",\"singer\",\"writer\",\"artist\"]\n\n// [true,false,false,false]\n// [false,true,true,false]\n// [0,0,0,0]\n// [\"0x0\",\"0x4972160fDc51F51f50c0429512e716bDE934c0A4\",\"0x6Cd89eF00282b4a23da80A91Bd395Cd39c9f722D\",\"0xefFf2bA576d3421AA91c27A6F0f6DBAE8079cd2B\"]\n// [50,50,50,50]\n// [\"producer\",\"singer\",\"writer\",\"artist\"]",
  "sourcePath": "G:\\dappinit2\\contracts\\music.sol",
  "compiler": {
    "name": "solc",
    "version": "0.4.25+commit.59dbf8f1.Emscripten.clang"
  },
  "schemaVersion": "2.0.2",
  "updatedAt": "2019-04-09T02:06:23.627Z"
}