{
  "contractName": "VideoShare",
  "abi": [
    {
      "constant": true,
      "inputs": [],
      "name": "videoNum",
      "outputs": [
        {
          "name": "",
          "type": "uint256"
        }
      ],
      "payable": false,
      "stateMutability": "view",
      "type": "function",
      "signature": "0x34091548"
    },
    {
      "constant": true,
      "inputs": [],
      "name": "albumNum",
      "outputs": [
        {
          "name": "",
          "type": "uint256"
        }
      ],
      "payable": false,
      "stateMutability": "view",
      "type": "function",
      "signature": "0x60cd2d70"
    },
    {
      "constant": true,
      "inputs": [],
      "name": "picNum",
      "outputs": [
        {
          "name": "",
          "type": "uint256"
        }
      ],
      "payable": false,
      "stateMutability": "view",
      "type": "function",
      "signature": "0xd447150d"
    },
    {
      "constant": true,
      "inputs": [],
      "name": "txtNum",
      "outputs": [
        {
          "name": "",
          "type": "uint256"
        }
      ],
      "payable": false,
      "stateMutability": "view",
      "type": "function",
      "signature": "0xdeac922d"
    },
    {
      "constant": false,
      "inputs": [
        {
          "name": "_nickname",
          "type": "string"
        },
        {
          "name": "_profile",
          "type": "string"
        },
        {
          "name": "_avatar",
          "type": "string"
        }
      ],
      "name": "setMyInfo",
      "outputs": [],
      "payable": false,
      "stateMutability": "nonpayable",
      "type": "function",
      "signature": "0x4647894f"
    },
    {
      "constant": false,
      "inputs": [
        {
          "name": "_nickname",
          "type": "string"
        }
      ],
      "name": "setMyNickname",
      "outputs": [],
      "payable": false,
      "stateMutability": "nonpayable",
      "type": "function",
      "signature": "0x198c6451"
    },
    {
      "constant": false,
      "inputs": [
        {
          "name": "_profile",
          "type": "string"
        }
      ],
      "name": "setMyProfile",
      "outputs": [],
      "payable": false,
      "stateMutability": "nonpayable",
      "type": "function",
      "signature": "0xd15b65e2"
    },
    {
      "constant": false,
      "inputs": [
        {
          "name": "_avatar",
          "type": "string"
        }
      ],
      "name": "setMyAvatar",
      "outputs": [],
      "payable": false,
      "stateMutability": "nonpayable",
      "type": "function",
      "signature": "0xc525a083"
    },
    {
      "constant": true,
      "inputs": [
        {
          "name": "_userAdd",
          "type": "address"
        }
      ],
      "name": "getUserInfo",
      "outputs": [
        {
          "name": "nickname",
          "type": "string"
        },
        {
          "name": "profile",
          "type": "string"
        },
        {
          "name": "avatar",
          "type": "string"
        },
        {
          "name": "videoNums",
          "type": "uint256"
        }
      ],
      "payable": false,
      "stateMutability": "view",
      "type": "function",
      "signature": "0x6386c1c7"
    },
    {
      "constant": false,
      "inputs": [
        {
          "name": "_txtId",
          "type": "uint256"
        },
        {
          "name": "_content",
          "type": "string"
        },
        {
          "name": "_only",
          "type": "bool"
        },
        {
          "name": "_permission",
          "type": "uint8"
        }
      ],
      "name": "setTxt",
      "outputs": [],
      "payable": false,
      "stateMutability": "nonpayable",
      "type": "function",
      "signature": "0xc8995f7b"
    },
    {
      "constant": true,
      "inputs": [
        {
          "name": "_txtId",
          "type": "uint256"
        }
      ],
      "name": "getTxt",
      "outputs": [
        {
          "name": "content",
          "type": "string"
        }
      ],
      "payable": false,
      "stateMutability": "view",
      "type": "function",
      "signature": "0xff37839b"
    },
    {
      "constant": false,
      "inputs": [
        {
          "name": "_picId",
          "type": "uint256"
        },
        {
          "name": "_pic",
          "type": "string"
        },
        {
          "name": "_only",
          "type": "bool"
        },
        {
          "name": "_permission",
          "type": "uint8"
        }
      ],
      "name": "setPicture",
      "outputs": [],
      "payable": false,
      "stateMutability": "nonpayable",
      "type": "function",
      "signature": "0xae16b077"
    },
    {
      "constant": true,
      "inputs": [
        {
          "name": "_picId",
          "type": "uint256"
        }
      ],
      "name": "getPicture",
      "outputs": [
        {
          "name": "pic",
          "type": "string"
        }
      ],
      "payable": false,
      "stateMutability": "view",
      "type": "function",
      "signature": "0x05c8489c"
    },
    {
      "constant": false,
      "inputs": [
        {
          "name": "_title",
          "type": "string"
        },
        {
          "name": "_cover",
          "type": "string"
        },
        {
          "name": "_videoinfo",
          "type": "string"
        },
        {
          "name": "_info",
          "type": "string"
        },
        {
          "name": "_duration",
          "type": "uint256"
        },
        {
          "name": "_filename",
          "type": "string"
        },
        {
          "name": "_fileinfo",
          "type": "string"
        },
        {
          "name": "_size",
          "type": "uint256"
        },
        {
          "name": "_width",
          "type": "uint32"
        },
        {
          "name": "_height",
          "type": "uint32"
        },
        {
          "name": "_fps",
          "type": "uint32"
        }
      ],
      "name": "publish",
      "outputs": [
        {
          "name": "videoId",
          "type": "uint256"
        }
      ],
      "payable": false,
      "stateMutability": "nonpayable",
      "type": "function",
      "signature": "0xcc7811e5"
    },
    {
      "constant": false,
      "inputs": [
        {
          "name": "_videoId",
          "type": "uint256"
        },
        {
          "name": "_value",
          "type": "uint8"
        }
      ],
      "name": "setVideoPermission",
      "outputs": [],
      "payable": false,
      "stateMutability": "nonpayable",
      "type": "function",
      "signature": "0x6ed3e6b6"
    },
    {
      "constant": false,
      "inputs": [
        {
          "name": "_videoId",
          "type": "uint256"
        },
        {
          "name": "_cover",
          "type": "string"
        },
        {
          "name": "_videoinfo",
          "type": "string"
        }
      ],
      "name": "setVideo",
      "outputs": [],
      "payable": false,
      "stateMutability": "nonpayable",
      "type": "function",
      "signature": "0x54edd984"
    },
    {
      "constant": false,
      "inputs": [
        {
          "name": "_videoId",
          "type": "uint256"
        },
        {
          "name": "_title",
          "type": "string"
        },
        {
          "name": "_info",
          "type": "string"
        }
      ],
      "name": "setVideoInfo",
      "outputs": [],
      "payable": false,
      "stateMutability": "nonpayable",
      "type": "function",
      "signature": "0x382bebba"
    },
    {
      "constant": false,
      "inputs": [
        {
          "name": "_videoId",
          "type": "uint256"
        },
        {
          "name": "_filename",
          "type": "string"
        },
        {
          "name": "_fileinfo",
          "type": "string"
        },
        {
          "name": "_size",
          "type": "uint256"
        },
        {
          "name": "_width",
          "type": "uint32"
        },
        {
          "name": "_height",
          "type": "uint32"
        },
        {
          "name": "_fps",
          "type": "uint32"
        }
      ],
      "name": "addVideofile",
      "outputs": [],
      "payable": false,
      "stateMutability": "nonpayable",
      "type": "function",
      "signature": "0x8ca8d6f7"
    },
    {
      "constant": false,
      "inputs": [
        {
          "name": "_videoId",
          "type": "uint256"
        },
        {
          "name": "_fileId",
          "type": "uint256"
        },
        {
          "name": "_value",
          "type": "uint8"
        }
      ],
      "name": "setFilePermission",
      "outputs": [],
      "payable": false,
      "stateMutability": "nonpayable",
      "type": "function",
      "signature": "0x4bcd6ef2"
    },
    {
      "constant": true,
      "inputs": [
        {
          "name": "_videoId",
          "type": "uint256"
        }
      ],
      "name": "getVideo",
      "outputs": [
        {
          "name": "title",
          "type": "string"
        },
        {
          "name": "cover",
          "type": "string"
        },
        {
          "name": "videoinfo",
          "type": "string"
        },
        {
          "name": "info",
          "type": "string"
        },
        {
          "name": "duration",
          "type": "uint256"
        },
        {
          "name": "timestamp",
          "type": "uint256"
        },
        {
          "name": "author",
          "type": "address"
        },
        {
          "name": "commentsNum",
          "type": "uint256"
        },
        {
          "name": "gratuityNum",
          "type": "uint256"
        },
        {
          "name": "gratuitySum",
          "type": "uint256"
        }
      ],
      "payable": false,
      "stateMutability": "view",
      "type": "function",
      "signature": "0x2893eca2"
    },
    {
      "constant": true,
      "inputs": [
        {
          "name": "_videoId",
          "type": "uint256"
        },
        {
          "name": "_fileId",
          "type": "uint256"
        }
      ],
      "name": "getVideoFile",
      "outputs": [
        {
          "name": "filename",
          "type": "string"
        },
        {
          "name": "fileinfo",
          "type": "string"
        },
        {
          "name": "size",
          "type": "uint256"
        },
        {
          "name": "width",
          "type": "uint32"
        },
        {
          "name": "height",
          "type": "uint32"
        },
        {
          "name": "fps",
          "type": "uint32"
        },
        {
          "name": "fileNum",
          "type": "uint256"
        }
      ],
      "payable": false,
      "stateMutability": "view",
      "type": "function",
      "signature": "0xcc53ba2e"
    },
    {
      "constant": false,
      "inputs": [
        {
          "name": "_videoId",
          "type": "uint256"
        },
        {
          "name": "_lable",
          "type": "string"
        }
      ],
      "name": "makeLable",
      "outputs": [],
      "payable": false,
      "stateMutability": "nonpayable",
      "type": "function",
      "signature": "0x4cad2589"
    },
    {
      "constant": true,
      "inputs": [
        {
          "name": "_videoId",
          "type": "uint256"
        },
        {
          "name": "_lableId",
          "type": "uint256"
        }
      ],
      "name": "getVideoLable",
      "outputs": [
        {
          "name": "lable",
          "type": "string"
        },
        {
          "name": "times",
          "type": "uint256"
        }
      ],
      "payable": false,
      "stateMutability": "view",
      "type": "function",
      "signature": "0x17de0412"
    },
    {
      "constant": false,
      "inputs": [
        {
          "name": "_videoId",
          "type": "uint256"
        },
        {
          "name": "_videotimestamp",
          "type": "uint256"
        },
        {
          "name": "_comment",
          "type": "string"
        }
      ],
      "name": "makeComment",
      "outputs": [],
      "payable": false,
      "stateMutability": "nonpayable",
      "type": "function",
      "signature": "0xb34f3846"
    },
    {
      "constant": false,
      "inputs": [
        {
          "name": "_videoId",
          "type": "uint256"
        },
        {
          "name": "_commentId",
          "type": "uint256"
        },
        {
          "name": "_videotimestamp",
          "type": "uint256"
        },
        {
          "name": "_comment",
          "type": "string"
        }
      ],
      "name": "changeCommen",
      "outputs": [],
      "payable": false,
      "stateMutability": "nonpayable",
      "type": "function",
      "signature": "0x8ada5a16"
    },
    {
      "constant": true,
      "inputs": [
        {
          "name": "_videoId",
          "type": "uint256"
        },
        {
          "name": "_commentId",
          "type": "uint256"
        }
      ],
      "name": "getVideoComment",
      "outputs": [
        {
          "name": "content",
          "type": "string"
        },
        {
          "name": "timestamp",
          "type": "uint256"
        },
        {
          "name": "videotimestamp",
          "type": "uint256"
        },
        {
          "name": "author",
          "type": "address"
        }
      ],
      "payable": false,
      "stateMutability": "view",
      "type": "function",
      "signature": "0x8e8cde21"
    },
    {
      "constant": false,
      "inputs": [
        {
          "name": "_videoId",
          "type": "uint256"
        }
      ],
      "name": "reward",
      "outputs": [],
      "payable": true,
      "stateMutability": "payable",
      "type": "function",
      "signature": "0xa9fb763c"
    },
    {
      "constant": true,
      "inputs": [
        {
          "name": "_videoId",
          "type": "uint256"
        },
        {
          "name": "_gratuitysId",
          "type": "uint256"
        }
      ],
      "name": "getGratuitys",
      "outputs": [
        {
          "name": "author",
          "type": "address"
        },
        {
          "name": "gratuity",
          "type": "uint256"
        }
      ],
      "payable": false,
      "stateMutability": "view",
      "type": "function",
      "signature": "0xdfc674ce"
    },
    {
      "constant": false,
      "inputs": [
        {
          "name": "_title",
          "type": "string"
        },
        {
          "name": "_cover",
          "type": "string"
        },
        {
          "name": "_info",
          "type": "string"
        }
      ],
      "name": "createAlbum",
      "outputs": [
        {
          "name": "albumnum",
          "type": "uint256"
        }
      ],
      "payable": false,
      "stateMutability": "nonpayable",
      "type": "function",
      "signature": "0x088d51ba"
    },
    {
      "constant": false,
      "inputs": [
        {
          "name": "_albumId",
          "type": "uint256"
        },
        {
          "name": "_title",
          "type": "string"
        },
        {
          "name": "_cover",
          "type": "string"
        },
        {
          "name": "_info",
          "type": "string"
        }
      ],
      "name": "editAlbum",
      "outputs": [],
      "payable": false,
      "stateMutability": "nonpayable",
      "type": "function",
      "signature": "0x3ccb9e06"
    },
    {
      "constant": false,
      "inputs": [
        {
          "name": "_albumId",
          "type": "uint256"
        },
        {
          "name": "_videoId",
          "type": "uint256"
        }
      ],
      "name": "createAlbumVideo",
      "outputs": [
        {
          "name": "videonum",
          "type": "uint256"
        }
      ],
      "payable": false,
      "stateMutability": "nonpayable",
      "type": "function",
      "signature": "0x1c3d3eb9"
    },
    {
      "constant": false,
      "inputs": [
        {
          "name": "_albumId",
          "type": "uint256"
        },
        {
          "name": "_albumvideoId",
          "type": "uint256"
        },
        {
          "name": "_videoId",
          "type": "uint256"
        }
      ],
      "name": "updateAlbumVideo",
      "outputs": [],
      "payable": false,
      "stateMutability": "nonpayable",
      "type": "function",
      "signature": "0x34cc3d1b"
    },
    {
      "constant": true,
      "inputs": [
        {
          "name": "_albumId",
          "type": "uint256"
        }
      ],
      "name": "getAlbum",
      "outputs": [
        {
          "name": "title",
          "type": "string"
        },
        {
          "name": "cover",
          "type": "string"
        },
        {
          "name": "info",
          "type": "string"
        },
        {
          "name": "author",
          "type": "address"
        },
        {
          "name": "videonum",
          "type": "uint256"
        },
        {
          "name": "durationSum",
          "type": "uint256"
        }
      ],
      "payable": false,
      "stateMutability": "view",
      "type": "function",
      "signature": "0xd6e465c9"
    },
    {
      "constant": true,
      "inputs": [
        {
          "name": "_albumId",
          "type": "uint256"
        },
        {
          "name": "_videoId",
          "type": "uint256"
        }
      ],
      "name": "getAlbumVideo",
      "outputs": [
        {
          "name": "videoId",
          "type": "uint256"
        },
        {
          "name": "title",
          "type": "string"
        },
        {
          "name": "cover",
          "type": "string"
        },
        {
          "name": "videoinfo",
          "type": "string"
        },
        {
          "name": "info",
          "type": "string"
        },
        {
          "name": "duration",
          "type": "uint256"
        },
        {
          "name": "timestamp",
          "type": "uint256"
        },
        {
          "name": "author",
          "type": "address"
        },
        {
          "name": "commentsNum",
          "type": "uint256"
        },
        {
          "name": "gratuityNum",
          "type": "uint256"
        },
        {
          "name": "gratuitySum",
          "type": "uint256"
        }
      ],
      "payable": false,
      "stateMutability": "view",
      "type": "function",
      "signature": "0xf738a9a2"
    }
  ],
  "bytecode": "0x608060405234801561001057600080fd5b506158aa80620000216000396000f3fe6080604052600436106101ac576000357c0100000000000000000000000000000000000000000000000000000000900463ffffffff16806305c8489c146101b1578063088d51ba1461026557806317de04121461046f578063198c6451146105345780631c3d3eb9146105fc5780632893eca21461065557806334091548146108a357806334cc3d1b146108ce578063382bebba1461091d5780633ccb9e0614610a865780634647894f14610c865780634bcd6ef214610e7c5780634cad258914610ece57806354edd98414610fa057806360cd2d70146111095780636386c1c7146111345780636ed3e6b6146112dd5780638ada5a16146113255780638ca8d6f71461140b5780638e8cde21146115ae578063a9fb763c146116ad578063ae16b077146116db578063b34f3846146117c6578063c525a083146118a2578063c8995f7b1461196a578063cc53ba2e14611a55578063cc7811e514611bc6578063d15b65e214611fda578063d447150d146120a2578063d6e465c9146120cd578063deac922d1461229a578063dfc674ce146122c5578063f738a9a214612351578063ff37839b146125b0575b600080fd5b3480156101bd57600080fd5b506101ea600480360360208110156101d457600080fd5b8101908080359060200190929190505050612664565b6040518080602001828103825283818151815260200191508051906020019080838360005b8381101561022a57808201518184015260208101905061020f565b50505050905090810190601f1680156102575780820380516001836020036101000a031916815260200191505b509250505060405180910390f35b34801561027157600080fd5b506104596004803603606081101561028857600080fd5b81019080803590602001906401000000008111156102a557600080fd5b8201836020820111156102b757600080fd5b803590602001918460018302840111640100000000831117156102d957600080fd5b91908080601f016020809104026020016040519081016040528093929190818152602001838380828437600081840152601f19601f8201169050808301925050505050505091929192908035906020019064010000000081111561033c57600080fd5b82018360208201111561034e57600080fd5b8035906020019184600183028401116401000000008311171561037057600080fd5b91908080601f016020809104026020016040519081016040528093929190818152602001838380828437600081840152601f19601f820116905080830192505050505050509192919290803590602001906401000000008111156103d357600080fd5b8201836020820111156103e557600080fd5b8035906020019184600183028401116401000000008311171561040757600080fd5b91908080601f016020809104026020016040519081016040528093929190818152602001838380828437600081840152601f19601f8201169050808301925050505050505091929192905050506127c3565b6040518082815260200191505060405180910390f35b34801561047b57600080fd5b506104b26004803603604081101561049257600080fd5b8101908080359060200190929190803590602001909291905050506128e1565b6040518080602001838152602001828103825284818151815260200191508051906020019080838360005b838110156104f85780820151818401526020810190506104dd565b50505050905090810190601f1680156105255780820380516001836020036101000a031916815260200191505b50935050505060405180910390f35b34801561054057600080fd5b506105fa6004803603602081101561055757600080fd5b810190808035906020019064010000000081111561057457600080fd5b82018360208201111561058657600080fd5b803590602001918460018302840111640100000000831117156105a857600080fd5b91908080601f016020809104026020016040519081016040528093929190818152602001838380828437600081840152601f19601f820116905080830192505050505050509192919290505050612a9f565b005b34801561060857600080fd5b5061063f6004803603604081101561061f57600080fd5b810190808035906020019092919080359060200190929190505050612af9565b6040518082815260200191505060405180910390f35b34801561066157600080fd5b5061068e6004803603602081101561067857600080fd5b8101908080359060200190929190505050612be2565b60405180806020018060200180602001806020018b81526020018a81526020018973ffffffffffffffffffffffffffffffffffffffff1673ffffffffffffffffffffffffffffffffffffffff16815260200188815260200187815260200186815260200185810385528f818151815260200191508051906020019080838360005b8381101561072a57808201518184015260208101905061070f565b50505050905090810190601f1680156107575780820380516001836020036101000a031916815260200191505b5085810384528e818151815260200191508051906020019080838360005b83811015610790578082015181840152602081019050610775565b50505050905090810190601f1680156107bd5780820380516001836020036101000a031916815260200191505b5085810383528d818151815260200191508051906020019080838360005b838110156107f65780820151818401526020810190506107db565b50505050905090810190601f1680156108235780820380516001836020036101000a031916815260200191505b5085810382528c818151815260200191508051906020019080838360005b8381101561085c578082015181840152602081019050610841565b50505050905090810190601f1680156108895780820380516001836020036101000a031916815260200191505b509e50505050505050505050505050505060405180910390f35b3480156108af57600080fd5b506108b8612fc5565b6040518082815260200191505060405180910390f35b3480156108da57600080fd5b5061091b600480360360608110156108f157600080fd5b81019080803590602001909291908035906020019092919080359060200190929190505050612fcb565b005b34801561092957600080fd5b50610a846004803603606081101561094057600080fd5b81019080803590602001909291908035906020019064010000000081111561096757600080fd5b82018360208201111561097957600080fd5b8035906020019184600183028401116401000000008311171561099b57600080fd5b91908080601f016020809104026020016040519081016040528093929190818152602001838380828437600081840152601f19601f820116905080830192505050505050509192919290803590602001906401000000008111156109fe57600080fd5b820183602082011115610a1057600080fd5b80359060200191846001830284011164010000000083111715610a3257600080fd5b91908080601f016020809104026020016040519081016040528093929190818152602001838380828437600081840152601f19601f82011690508083019250505050505050919291929050505061308e565b005b348015610a9257600080fd5b50610c8460048036036080811015610aa957600080fd5b810190808035906020019092919080359060200190640100000000811115610ad057600080fd5b820183602082011115610ae257600080fd5b80359060200191846001830284011164010000000083111715610b0457600080fd5b91908080601f016020809104026020016040519081016040528093929190818152602001838380828437600081840152601f19601f82011690508083019250505050505050919291929080359060200190640100000000811115610b6757600080fd5b820183602082011115610b7957600080fd5b80359060200191846001830284011164010000000083111715610b9b57600080fd5b91908080601f016020809104026020016040519081016040528093929190818152602001838380828437600081840152601f19601f82011690508083019250505050505050919291929080359060200190640100000000811115610bfe57600080fd5b820183602082011115610c1057600080fd5b80359060200191846001830284011164010000000083111715610c3257600080fd5b91908080601f016020809104026020016040519081016040528093929190818152602001838380828437600081840152601f19601f82011690508083019250505050505050919291929050505061315a565b005b348015610c9257600080fd5b50610e7a60048036036060811015610ca957600080fd5b8101908080359060200190640100000000811115610cc657600080fd5b820183602082011115610cd857600080fd5b80359060200191846001830284011164010000000083111715610cfa57600080fd5b91908080601f016020809104026020016040519081016040528093929190818152602001838380828437600081840152601f19601f82011690508083019250505050505050919291929080359060200190640100000000811115610d5d57600080fd5b820183602082011115610d6f57600080fd5b80359060200191846001830284011164010000000083111715610d9157600080fd5b91908080601f016020809104026020016040519081016040528093929190818152602001838380828437600081840152601f19601f82011690508083019250505050505050919291929080359060200190640100000000811115610df457600080fd5b820183602082011115610e0657600080fd5b80359060200191846001830284011164010000000083111715610e2857600080fd5b91908080601f016020809104026020016040519081016040528093929190818152602001838380828437600081840152601f19601f820116905080830192505050505050509192919290505050613252565b005b348015610e8857600080fd5b50610ecc60048036036060811015610e9f57600080fd5b810190808035906020019092919080359060200190929190803560ff16906020019092919050505061331d565b005b348015610eda57600080fd5b50610f9e60048036036040811015610ef157600080fd5b810190808035906020019092919080359060200190640100000000811115610f1857600080fd5b820183602082011115610f2a57600080fd5b80359060200191846001830284011164010000000083111715610f4c57600080fd5b91908080601f016020809104026020016040519081016040528093929190818152602001838380828437600081840152601f19601f8201169050808301925050505050505091929192905050506133d0565b005b348015610fac57600080fd5b5061110760048036036060811015610fc357600080fd5b810190808035906020019092919080359060200190640100000000811115610fea57600080fd5b820183602082011115610ffc57600080fd5b8035906020019184600183028401116401000000008311171561101e57600080fd5b91908080601f016020809104026020016040519081016040528093929190818152602001838380828437600081840152601f19601f8201169050808301925050505050505091929192908035906020019064010000000081111561108157600080fd5b82018360208201111561109357600080fd5b803590602001918460018302840111640100000000831117156110b557600080fd5b91908080601f016020809104026020016040519081016040528093929190818152602001838380828437600081840152601f19601f82011690508083019250505050505050919291929050505061362a565b005b34801561111557600080fd5b5061111e6136f6565b6040518082815260200191505060405180910390f35b34801561114057600080fd5b506111836004803603602081101561115757600080fd5b81019080803573ffffffffffffffffffffffffffffffffffffffff1690602001909291905050506136fc565b60405180806020018060200180602001858152602001848103845288818151815260200191508051906020019080838360005b838110156111d15780820151818401526020810190506111b6565b50505050905090810190601f1680156111fe5780820380516001836020036101000a031916815260200191505b50848103835287818151815260200191508051906020019080838360005b8381101561123757808201518184015260208101905061121c565b50505050905090810190601f1680156112645780820380516001836020036101000a031916815260200191505b50848103825286818151815260200191508051906020019080838360005b8381101561129d578082015181840152602081019050611282565b50505050905090810190601f1680156112ca5780820380516001836020036101000a031916815260200191505b5097505050505050505060405180910390f35b3480156112e957600080fd5b506113236004803603604081101561130057600080fd5b8101908080359060200190929190803560ff1690602001909291905050506139ef565b005b34801561133157600080fd5b506114096004803603608081101561134857600080fd5b810190808035906020019092919080359060200190929190803590602001909291908035906020019064010000000081111561138357600080fd5b82018360208201111561139557600080fd5b803590602001918460018302840111640100000000831117156113b757600080fd5b91908080601f016020809104026020016040519081016040528093929190818152602001838380828437600081840152601f19601f820116905080830192505050505050509192919290505050613a93565b005b34801561141757600080fd5b506115ac600480360360e081101561142e57600080fd5b81019080803590602001909291908035906020019064010000000081111561145557600080fd5b82018360208201111561146757600080fd5b8035906020019184600183028401116401000000008311171561148957600080fd5b91908080601f016020809104026020016040519081016040528093929190818152602001838380828437600081840152601f19601f820116905080830192505050505050509192919290803590602001906401000000008111156114ec57600080fd5b8201836020820111156114fe57600080fd5b8035906020019184600183028401116401000000008311171561152057600080fd5b91908080601f016020809104026020016040519081016040528093929190818152602001838380828437600081840152601f19601f82011690508083019250505050505050919291929080359060200190929190803563ffffffff169060200190929190803563ffffffff169060200190929190803563ffffffff169060200190929190505050613c11565b005b3480156115ba57600080fd5b506115f1600480360360408110156115d157600080fd5b810190808035906020019092919080359060200190929190505050613f6f565b60405180806020018581526020018481526020018373ffffffffffffffffffffffffffffffffffffffff1673ffffffffffffffffffffffffffffffffffffffff168152602001828103825286818151815260200191508051906020019080838360005b8381101561166f578082015181840152602081019050611654565b50505050905090810190601f16801561169c5780820380516001836020036101000a031916815260200191505b509550505050505060405180910390f35b6116d9600480360360208110156116c357600080fd5b81019080803590602001909291905050506141ba565b005b3480156116e757600080fd5b506117c4600480360360808110156116fe57600080fd5b81019080803590602001909291908035906020019064010000000081111561172557600080fd5b82018360208201111561173757600080fd5b8035906020019184600183028401116401000000008311171561175957600080fd5b91908080601f016020809104026020016040519081016040528093929190818152602001838380828437600081840152601f19601f820116905080830192505050505050509192919290803515159060200190929190803560ff16906020019092919050505061433a565b005b3480156117d257600080fd5b506118a0600480360360608110156117e957600080fd5b8101908080359060200190929190803590602001909291908035906020019064010000000081111561181a57600080fd5b82018360208201111561182c57600080fd5b8035906020019184600183028401116401000000008311171561184e57600080fd5b91908080601f016020809104026020016040519081016040528093929190818152602001838380828437600081840152601f19601f82011690508083019250505050505050919291929050505061440b565b005b3480156118ae57600080fd5b50611968600480360360208110156118c557600080fd5b81019080803590602001906401000000008111156118e257600080fd5b8201836020820111156118f457600080fd5b8035906020019184600183028401116401000000008311171561191657600080fd5b91908080601f016020809104026020016040519081016040528093929190818152602001838380828437600081840152601f19601f820116905080830192505050505050509192919290505050614568565b005b34801561197657600080fd5b50611a536004803603608081101561198d57600080fd5b8101908080359060200190929190803590602001906401000000008111156119b457600080fd5b8201836020820111156119c657600080fd5b803590602001918460018302840111640100000000831117156119e857600080fd5b91908080601f016020809104026020016040519081016040528093929190818152602001838380828437600081840152601f19601f820116905080830192505050505050509192919290803515159060200190929190803560ff1690602001909291905050506145c2565b005b348015611a6157600080fd5b50611a9860048036036040811015611a7857600080fd5b810190808035906020019092919080359060200190929190505050614693565b6040518080602001806020018881526020018763ffffffff1663ffffffff1681526020018663ffffffff1663ffffffff1681526020018563ffffffff1663ffffffff16815260200184815260200183810383528a818151815260200191508051906020019080838360005b83811015611b1e578082015181840152602081019050611b03565b50505050905090810190601f168015611b4b5780820380516001836020036101000a031916815260200191505b50838103825289818151815260200191508051906020019080838360005b83811015611b84578082015181840152602081019050611b69565b50505050905090810190601f168015611bb15780820380516001836020036101000a031916815260200191505b50995050505050505050505060405180910390f35b348015611bd257600080fd5b50611fc46004803603610160811015611bea57600080fd5b8101908080359060200190640100000000811115611c0757600080fd5b820183602082011115611c1957600080fd5b80359060200191846001830284011164010000000083111715611c3b57600080fd5b91908080601f016020809104026020016040519081016040528093929190818152602001838380828437600081840152601f19601f82011690508083019250505050505050919291929080359060200190640100000000811115611c9e57600080fd5b820183602082011115611cb057600080fd5b80359060200191846001830284011164010000000083111715611cd257600080fd5b91908080601f016020809104026020016040519081016040528093929190818152602001838380828437600081840152601f19601f82011690508083019250505050505050919291929080359060200190640100000000811115611d3557600080fd5b820183602082011115611d4757600080fd5b80359060200191846001830284011164010000000083111715611d6957600080fd5b91908080601f016020809104026020016040519081016040528093929190818152602001838380828437600081840152601f19601f82011690508083019250505050505050919291929080359060200190640100000000811115611dcc57600080fd5b820183602082011115611dde57600080fd5b80359060200191846001830284011164010000000083111715611e0057600080fd5b91908080601f016020809104026020016040519081016040528093929190818152602001838380828437600081840152601f19601f8201169050808301925050505050505091929192908035906020019092919080359060200190640100000000811115611e6d57600080fd5b820183602082011115611e7f57600080fd5b80359060200191846001830284011164010000000083111715611ea157600080fd5b91908080601f016020809104026020016040519081016040528093929190818152602001838380828437600081840152601f19601f82011690508083019250505050505050919291929080359060200190640100000000811115611f0457600080fd5b820183602082011115611f1657600080fd5b80359060200191846001830284011164010000000083111715611f3857600080fd5b91908080601f016020809104026020016040519081016040528093929190818152602001838380828437600081840152601f19601f82011690508083019250505050505050919291929080359060200190929190803563ffffffff169060200190929190803563ffffffff169060200190929190803563ffffffff1690602001909291905050506149ef565b6040518082815260200191505060405180910390f35b348015611fe657600080fd5b506120a060048036036020811015611ffd57600080fd5b810190808035906020019064010000000081111561201a57600080fd5b82018360208201111561202c57600080fd5b8035906020019184600183028401116401000000008311171561204e57600080fd5b91908080601f016020809104026020016040519081016040528093929190818152602001838380828437600081840152601f19601f820116905080830192505050505050509192919290505050614dde565b005b3480156120ae57600080fd5b506120b7614e38565b6040518082815260200191505060405180910390f35b3480156120d957600080fd5b50612106600480360360208110156120f057600080fd5b8101908080359060200190929190505050614e3e565b604051808060200180602001806020018773ffffffffffffffffffffffffffffffffffffffff1673ffffffffffffffffffffffffffffffffffffffff16815260200186815260200185815260200184810384528a818151815260200191508051906020019080838360005b8381101561218c578082015181840152602081019050612171565b50505050905090810190601f1680156121b95780820380516001836020036101000a031916815260200191505b50848103835289818151815260200191508051906020019080838360005b838110156121f25780820151818401526020810190506121d7565b50505050905090810190601f16801561221f5780820380516001836020036101000a031916815260200191505b50848103825288818151815260200191508051906020019080838360005b8381101561225857808201518184015260208101905061223d565b50505050905090810190601f1680156122855780820380516001836020036101000a031916815260200191505b50995050505050505050505060405180910390f35b3480156122a657600080fd5b506122af615118565b6040518082815260200191505060405180910390f35b3480156122d157600080fd5b50612308600480360360408110156122e857600080fd5b81019080803590602001909291908035906020019092919050505061511e565b604051808373ffffffffffffffffffffffffffffffffffffffff1673ffffffffffffffffffffffffffffffffffffffff1681526020018281526020019250505060405180910390f35b34801561235d57600080fd5b506123946004803603604081101561237457600080fd5b8101908080359060200190929190803590602001909291905050506151e5565b604051808c8152602001806020018060200180602001806020018b81526020018a81526020018973ffffffffffffffffffffffffffffffffffffffff1673ffffffffffffffffffffffffffffffffffffffff16815260200188815260200187815260200186815260200185810385528f818151815260200191508051906020019080838360005b8381101561243657808201518184015260208101905061241b565b50505050905090810190601f1680156124635780820380516001836020036101000a031916815260200191505b5085810384528e818151815260200191508051906020019080838360005b8381101561249c578082015181840152602081019050612481565b50505050905090810190601f1680156124c95780820380516001836020036101000a031916815260200191505b5085810383528d818151815260200191508051906020019080838360005b838110156125025780820151818401526020810190506124e7565b50505050905090810190601f16801561252f5780820380516001836020036101000a031916815260200191505b5085810382528c818151815260200191508051906020019080838360005b8381101561256857808201518184015260208101905061254d565b50505050905090810190601f1680156125955780820380516001836020036101000a031916815260200191505b509f5050505050505050505050505050505060405180910390f35b3480156125bc57600080fd5b506125e9600480360360208110156125d357600080fd5b81019080803590602001909291905050506155fa565b6040518080602001828103825283818151815260200191508051906020019080838360005b8381101561262957808201518184015260208101905061260e565b50505050905090810190601f1680156126565780820380516001836020036101000a031916815260200191505b509250505060405180910390f35b606060006006600084815260200190815260200160002060010160019054906101000a900460ff1660ff1614806126fc57506006600083815260200190815260200160002060010160029054906101000a900473ffffffffffffffffffffffffffffffffffffffff1673ffffffffffffffffffffffffffffffffffffffff163373ffffffffffffffffffffffffffffffffffffffff16145b156127bd576000600660008481526020019081526020016000209050806000018054600181600116156101000203166002900480601f0160208091040260200160405190810160405280929190818152602001828054600181600116156101000203166002900480156127b05780601f10612785576101008083540402835291602001916127b0565b820191906000526020600020905b81548152906001019060200180831161279357829003601f168201915b50505050509150506127be565b5b919050565b600060a0604051908101604052808581526020018481526020018381526020013373ffffffffffffffffffffffffffffffffffffffff168152602001600081525060086000600360008154809291906001019190505581526020019081526020016000206000820151816000019080519060200190612843929190615759565b506020820151816001019080519060200190612860929190615759565b50604082015181600201908051906020019061287d929190615759565b5060608201518160030160006101000a81548173ffffffffffffffffffffffffffffffffffffffff021916908373ffffffffffffffffffffffffffffffffffffffff1602179055506080820151816004015590505060016003540390509392505050565b606060008060076000868152602001908152602001600020600b0160009054906101000a900460ff1660ff161415801561297d57503373ffffffffffffffffffffffffffffffffffffffff166007600086815260200190815260200160002060060160009054906101000a900473ffffffffffffffffffffffffffffffffffffffff1673ffffffffffffffffffffffffffffffffffffffff1614155b156129a257600060206040519081016040528060008152509080905091509150612a98565b60076000858152602001908152602001600020600d01600084815260200190815260200160002060000160076000868152602001908152602001600020600d01600085815260200190815260200160002060010154818054600181600116156101000203166002900480601f016020809104026020016040519081016040528092919081815260200182805460018160011615610100020316600290048015612a8c5780601f10612a6157610100808354040283529160200191612a8c565b820191906000526020600020905b815481529060010190602001808311612a6f57829003601f168201915b50505050509150915091505b9250929050565b80600460003373ffffffffffffffffffffffffffffffffffffffff1673ffffffffffffffffffffffffffffffffffffffff1681526020019081526020016000206000019080519060200190612af59291906157d9565b5050565b60006008600084815260200190815260200160002060030160009054906101000a900473ffffffffffffffffffffffffffffffffffffffff1673ffffffffffffffffffffffffffffffffffffffff163373ffffffffffffffffffffffffffffffffffffffff16141515612b6f5760009050612bdc565b8160086000858152602001908152602001600020600501600060086000878152602001908152602001600020600401600081548092919060010191905055815260200190815260200160002081905550600160086000858152602001908152602001600020600401540390505b92915050565b6060806060806000806000806000806000600760008d8152602001908152602001600020600b0160009054906101000a900460ff1660ff161480612c875750600760008c815260200190815260200160002060060160009054906101000a900473ffffffffffffffffffffffffffffffffffffffff1673ffffffffffffffffffffffffffffffffffffffff163373ffffffffffffffffffffffffffffffffffffffff16145b15612fb7576000600760008d8152602001908152602001600020905060008090505b8160080154811015612cdf5781600e01600082815260200190815260200160002060000154830192508080600101915050612ca9565b5080600001816001018260020183600301846004015485600501548660060160009054906101000a900473ffffffffffffffffffffffffffffffffffffffff16876007015488600801548a898054600181600116156101000203166002900480601f016020809104026020016040519081016040528092919081815260200182805460018160011615610100020316600290048015612dbf5780601f10612d9457610100808354040283529160200191612dbf565b820191906000526020600020905b815481529060010190602001808311612da257829003601f168201915b50505050509950888054600181600116156101000203166002900480601f016020809104026020016040519081016040528092919081815260200182805460018160011615610100020316600290048015612e5b5780601f10612e3057610100808354040283529160200191612e5b565b820191906000526020600020905b815481529060010190602001808311612e3e57829003601f168201915b50505050509850878054600181600116156101000203166002900480601f016020809104026020016040519081016040528092919081815260200182805460018160011615610100020316600290048015612ef75780601f10612ecc57610100808354040283529160200191612ef7565b820191906000526020600020905b815481529060010190602001808311612eda57829003601f168201915b50505050509750868054600181600116156101000203166002900480601f016020809104026020016040519081016040528092919081815260200182805460018160011615610100020316600290048015612f935780601f10612f6857610100808354040283529160200191612f93565b820191906000526020600020905b815481529060010190602001808311612f7657829003601f168201915b505050505096508393509a509a509a509a509a509a509a509a509a509a5050612fb8565b5b9193959799509193959799565b60025481565b6008600084815260200190815260200160002060030160009054906101000a900473ffffffffffffffffffffffffffffffffffffffff1673ffffffffffffffffffffffffffffffffffffffff163373ffffffffffffffffffffffffffffffffffffffff16141580613052575081600860008581526020019081526020016000206004015411155b1561305c57613089565b80600860008581526020019081526020016000206005016000848152602001908152602001600020819055505b505050565b6007600084815260200190815260200160002060060160009054906101000a900473ffffffffffffffffffffffffffffffffffffffff1673ffffffffffffffffffffffffffffffffffffffff163373ffffffffffffffffffffffffffffffffffffffff161415156130fe57613155565b816007600085815260200190815260200160002060000190805190602001906131289291906157d9565b50806007600085815260200190815260200160002060030190805190602001906131539291906157d9565b505b505050565b6008600085815260200190815260200160002060030160009054906101000a900473ffffffffffffffffffffffffffffffffffffffff1673ffffffffffffffffffffffffffffffffffffffff163373ffffffffffffffffffffffffffffffffffffffff161415156131ca5761324c565b826008600086815260200190815260200160002060000190805190602001906131f49291906157d9565b508160086000868152602001908152602001600020600101908051906020019061321f9291906157d9565b508060086000868152602001908152602001600020600201908051906020019061324a9291906157d9565b505b50505050565b6080604051908101604052808481526020018381526020018281526020016000815250600460003373ffffffffffffffffffffffffffffffffffffffff1673ffffffffffffffffffffffffffffffffffffffff16815260200190815260200160002060008201518160000190805190602001906132d0929190615759565b5060208201518160010190805190602001906132ed929190615759565b50604082015181600201908051906020019061330a929190615759565b5060608201518160030155905050505050565b6007600084815260200190815260200160002060060160009054906101000a900473ffffffffffffffffffffffffffffffffffffffff1673ffffffffffffffffffffffffffffffffffffffff163373ffffffffffffffffffffffffffffffffffffffff1614156133cb578060076000858152602001908152602001600020600c016000848152602001908152602001600020600301600c6101000a81548160ff021916908360ff1602179055505b505050565b600060076000848152602001908152602001600020600b0160009054906101000a900460ff1660ff1614151561340557613626565b600060076000848152602001908152602001600020905060008090505b81600901548110156135bc57826040516020018080602001828103825283818151815260200191508051906020019080838360005b83811015613472578082015181840152602081019050613457565b50505050905090810190601f16801561349f5780820380516001836020036101000a031916815260200191505b50925050506040516020818303038152906040528051906020012082600d016000838152602001908152602001600020600001604051602001808060200182810382528381815460018160011615610100020316600290048152602001915080546001816001161561010002031660029004801561355e5780601f106135335761010080835404028352916020019161355e565b820191906000526020600020905b81548152906001019060200180831161354157829003601f168201915b5050925050506040516020818303038152906040528051906020012014156135af5781600d016000828152602001908152602001600020600101600081548092919060010191905055505050613626565b8080600101915050613422565b506040805190810160405280838152602001600181525081600d0160008360090160008154809291906001019190505581526020019081526020016000206000820151816000019080519060200190613616929190615759565b5060208201518160010155905050505b5050565b6007600084815260200190815260200160002060060160009054906101000a900473ffffffffffffffffffffffffffffffffffffffff1673ffffffffffffffffffffffffffffffffffffffff163373ffffffffffffffffffffffffffffffffffffffff1614151561369a576136f1565b816007600085815260200190815260200160002060010190805190602001906136c49291906157d9565b50806007600085815260200190815260200160002060020190805190602001906136ef9291906157d9565b505b505050565b60035481565b60608060606000600460008673ffffffffffffffffffffffffffffffffffffffff1673ffffffffffffffffffffffffffffffffffffffff168152602001908152602001600020600001600460008773ffffffffffffffffffffffffffffffffffffffff1673ffffffffffffffffffffffffffffffffffffffff168152602001908152602001600020600101600460008873ffffffffffffffffffffffffffffffffffffffff1673ffffffffffffffffffffffffffffffffffffffff168152602001908152602001600020600201600460008973ffffffffffffffffffffffffffffffffffffffff1673ffffffffffffffffffffffffffffffffffffffff16815260200190815260200160002060030154838054600181600116156101000203166002900480601f0160208091040260200160405190810160405280929190818152602001828054600181600116156101000203166002900480156138a15780601f10613876576101008083540402835291602001916138a1565b820191906000526020600020905b81548152906001019060200180831161388457829003601f168201915b50505050509350828054600181600116156101000203166002900480601f01602080910402602001604051908101604052809291908181526020018280546001816001161561010002031660029004801561393d5780601f106139125761010080835404028352916020019161393d565b820191906000526020600020905b81548152906001019060200180831161392057829003601f168201915b50505050509250818054600181600116156101000203166002900480601f0160208091040260200160405190810160405280929190818152602001828054600181600116156101000203166002900480156139d95780601f106139ae576101008083540402835291602001916139d9565b820191906000526020600020905b8154815290600101906020018083116139bc57829003601f168201915b5050505050915093509350935093509193509193565b6007600083815260200190815260200160002060060160009054906101000a900473ffffffffffffffffffffffffffffffffffffffff1673ffffffffffffffffffffffffffffffffffffffff163373ffffffffffffffffffffffffffffffffffffffff16141515613a5f57613a8f565b8060076000848152602001908152602001600020600b0160006101000a81548160ff021916908360ff1602179055505b5050565b600060076000868152602001908152602001600020600b0160009054906101000a900460ff1660ff16141515613ac857613c0b565b816007600086815260200190815260200160002060040154111580613b6357503373ffffffffffffffffffffffffffffffffffffffff1660076000868152602001908152602001600020600f01600085815260200190815260200160002060030160009054906101000a900473ffffffffffffffffffffffffffffffffffffffff1673ffffffffffffffffffffffffffffffffffffffff1614155b15613b6d57613c0b565b8160076000868152602001908152602001600020600f016000858152602001908152602001600020600201819055508060076000868152602001908152602001600020600f0160008581526020019081526020016000206000019080519060200190613bda9291906157d9565b504260076000868152602001908152602001600020600f016000858152602001908152602001600020600201819055505b50505050565b6007600088815260200190815260200160002060060160009054906101000a900473ffffffffffffffffffffffffffffffffffffffff1673ffffffffffffffffffffffffffffffffffffffff163373ffffffffffffffffffffffffffffffffffffffff16141515613df35760e0604051908101604052808781526020018681526020018581526020018463ffffffff1681526020018363ffffffff1681526020018263ffffffff168152602001600160ff1681525060076000898152602001908152602001600020600c016000600760008b8152602001908152602001600020600a0160008154809291906001019190505581526020019081526020016000206000820151816000019080519060200190613d2d929190615759565b506020820151816001019080519060200190613d4a929190615759565b506040820151816002015560608201518160030160006101000a81548163ffffffff021916908363ffffffff16021790555060808201518160030160046101000a81548163ffffffff021916908363ffffffff16021790555060a08201518160030160086101000a81548163ffffffff021916908363ffffffff16021790555060c082015181600301600c6101000a81548160ff021916908360ff160217905550905050613f66565b60e0604051908101604052808781526020018681526020018581526020018463ffffffff1681526020018363ffffffff1681526020018263ffffffff168152602001600060ff1681525060076000898152602001908152602001600020600c016000600760008b8152602001908152602001600020600a0160008154809291906001019190505581526020019081526020016000206000820151816000019080519060200190613ea4929190615759565b506020820151816001019080519060200190613ec1929190615759565b506040820151816002015560608201518160030160006101000a81548163ffffffff021916908363ffffffff16021790555060808201518160030160046101000a81548163ffffffff021916908363ffffffff16021790555060a08201518160030160086101000a81548163ffffffff021916908363ffffffff16021790555060c082015181600301600c6101000a81548160ff021916908360ff1602179055509050505b50505050505050565b606060008060008060076000888152602001908152602001600020600b0160009054906101000a900460ff1660ff161415801561400e57503373ffffffffffffffffffffffffffffffffffffffff166007600088815260200190815260200160002060060160009054906101000a900473ffffffffffffffffffffffffffffffffffffffff1673ffffffffffffffffffffffffffffffffffffffff1614155b156140415760008033602060405190810160405280600081525092919082925081915080905093509350935093506141b1565b60076000878152602001908152602001600020600f01600086815260200190815260200160002060000160076000888152602001908152602001600020600f0160008781526020019081526020016000206001015460076000898152602001908152602001600020600f01600088815260200190815260200160002060020154600760008a8152602001908152602001600020600f01600089815260200190815260200160002060030160009054906101000a900473ffffffffffffffffffffffffffffffffffffffff16838054600181600116156101000203166002900480601f0160208091040260200160405190810160405280929190818152602001828054600181600116156101000203166002900480156141a15780601f10614176576101008083540402835291602001916141a1565b820191906000526020600020905b81548152906001019060200180831161418457829003601f168201915b5050505050935093509350935093505b92959194509250565b600060076000838152602001908152602001600020600b0160009054906101000a900460ff1660ff161415156141ef57614337565b6007600082815260200190815260200160002060060160009054906101000a900473ffffffffffffffffffffffffffffffffffffffff1673ffffffffffffffffffffffffffffffffffffffff166108fc349081150290604051600060405180830381858888f1935050505015801561426b573d6000803e3d6000fd5b5060408051908101604052803481526020013373ffffffffffffffffffffffffffffffffffffffff1681525060076000838152602001908152602001600020600e0160006007600085815260200190815260200160002060080160008154809291906001019190505581526020019081526020016000206000820151816000015560208201518160010160006101000a81548173ffffffffffffffffffffffffffffffffffffffff021916908373ffffffffffffffffffffffffffffffffffffffff1602179055509050505b50565b6006600085815260200190815260200160002060010160029054906101000a900473ffffffffffffffffffffffffffffffffffffffff1673ffffffffffffffffffffffffffffffffffffffff163373ffffffffffffffffffffffffffffffffffffffff161415156143aa57614405565b826006600086815260200190815260200160002060000190805190602001906143d49291906157d9565b50806006600086815260200190815260200160002060010160016101000a81548160ff021916908360ff1602179055505b50505050565b600060076000858152602001908152602001600020600b0160009054906101000a900460ff1660ff1614151561444057614563565b81600760008581526020019081526020016000206004015411151561446457614563565b6080604051908101604052808281526020014281526020018381526020013373ffffffffffffffffffffffffffffffffffffffff1681525060076000858152602001908152602001600020600f0160006007600087815260200190815260200160002060070160008154809291906001019190505581526020019081526020016000206000820151816000019080519060200190614503929190615759565b50602082015181600101556040820151816002015560608201518160030160006101000a81548173ffffffffffffffffffffffffffffffffffffffff021916908373ffffffffffffffffffffffffffffffffffffffff1602179055509050505b505050565b80600460003373ffffffffffffffffffffffffffffffffffffffff1673ffffffffffffffffffffffffffffffffffffffff16815260200190815260200160002060020190805190602001906145be9291906157d9565b5050565b6005600085815260200190815260200160002060010160029054906101000a900473ffffffffffffffffffffffffffffffffffffffff1673ffffffffffffffffffffffffffffffffffffffff163373ffffffffffffffffffffffffffffffffffffffff161415156146325761468d565b8260056000868152602001908152602001600020600001908051906020019061465c9291906157d9565b50806005600086815260200190815260200160002060010160016101000a81548160ff021916908360ff1602179055505b50505050565b606080600080600080600080600760008b8152602001908152602001600020600b0160009054906101000a900460ff1660ff16141580156147355750600760008a815260200190815260200160002060060160009054906101000a900473ffffffffffffffffffffffffffffffffffffffff1673ffffffffffffffffffffffffffffffffffffffff163373ffffffffffffffffffffffffffffffffffffffff16145b806147ac57506000600760008b8152602001908152602001600020600b0160009054906101000a900460ff1660ff161480156147ab57506000600760008b8152602001908152602001600020600c0160008a8152602001908152602001600020600301600c9054906101000a900460ff1660ff16145b5b1561497f576000600760008b81526020019081526020016000209050600081600c0160008b81526020019081526020016000209050806000018160010182600201548360030160009054906101000a900463ffffffff168460030160049054906101000a900463ffffffff168560030160089054906101000a900463ffffffff1687600a0154868054600181600116156101000203166002900480601f0160208091040260200160405190810160405280929190818152602001828054600181600116156101000203166002900480156148c75780601f1061489c576101008083540402835291602001916148c7565b820191906000526020600020905b8154815290600101906020018083116148aa57829003601f168201915b50505050509650858054600181600116156101000203166002900480601f0160208091040260200160405190810160405280929190818152602001828054600181600116156101000203166002900480156149635780601f1061493857610100808354040283529160200191614963565b820191906000526020600020905b81548152906001019060200180831161494657829003601f168201915b50505050509550985098509850985098509850985050506149e3565b600080600080600760008e8152602001908152602001600020600a0154602060405190810160405280600081525094939291906020604051908101604052806000815250949392919084945083935082925081915096509650965096509650965096505b92959891949750929550565b6000610180604051908101604052808d81526020018c81526020018b81526020018a81526020018981526020014281526020013373ffffffffffffffffffffffffffffffffffffffff16815260200160008152602001600081526020016000815260200160008152602001600060ff1681525060076000600260008154809291906001019190505581526020019081526020016000206000820151816000019080519060200190614aa1929190615759565b506020820151816001019080519060200190614abe929190615759565b506040820151816002019080519060200190614adb929190615759565b506060820151816003019080519060200190614af8929190615759565b506080820151816004015560a0820151816005015560c08201518160060160006101000a81548173ffffffffffffffffffffffffffffffffffffffff021916908373ffffffffffffffffffffffffffffffffffffffff16021790555060e082015181600701556101008201518160080155610120820151816009015561014082015181600a015561016082015181600b0160006101000a81548160ff021916908360ff16021790555090505060e0604051908101604052808881526020018781526020018681526020018563ffffffff1681526020018463ffffffff1681526020018363ffffffff168152602001600060ff16815250600760006002548152602001908152602001600020600c016000600760006002548152602001908152602001600020600a0160008154809291906001019190505581526020019081526020016000206000820151816000019080519060200190614c59929190615759565b506020820151816001019080519060200190614c76929190615759565b506040820151816002015560608201518160030160006101000a81548163ffffffff021916908363ffffffff16021790555060808201518160030160046101000a81548163ffffffff021916908363ffffffff16021790555060a08201518160030160086101000a81548163ffffffff021916908363ffffffff16021790555060c082015181600301600c6101000a81548160ff021916908360ff160217905550905050600160025403600460003373ffffffffffffffffffffffffffffffffffffffff1673ffffffffffffffffffffffffffffffffffffffff1681526020019081526020016000206004016000600460003373ffffffffffffffffffffffffffffffffffffffff1673ffffffffffffffffffffffffffffffffffffffff16815260200190815260200160002060030160008154809291906001019190505581526020019081526020016000208190555060016002540390509b9a5050505050505050505050565b80600460003373ffffffffffffffffffffffffffffffffffffffff1673ffffffffffffffffffffffffffffffffffffffff1681526020019081526020016000206001019080519060200190614e349291906157d9565b5050565b60015481565b606080606060008060008060086000898152602001908152602001600020905060008090505b816004015460001015614ef357600060076000846005016000858152602001908152602001600020548152602001908152602001600020600b0160009054906101000a900460ff1660ff161415614ee6576007600083600501600084815260200190815260200160002054815260200190815260200160002060040154830192505b8080600101915050614e64565b508060000181600101826002018360030160009054906101000a900473ffffffffffffffffffffffffffffffffffffffff16846004015486858054600181600116156101000203166002900480601f016020809104026020016040519081016040528092919081815260200182805460018160011615610100020316600290048015614fc05780601f10614f9557610100808354040283529160200191614fc0565b820191906000526020600020905b815481529060010190602001808311614fa357829003601f168201915b50505050509550848054600181600116156101000203166002900480601f01602080910402602001604051908101604052809291908181526020018280546001816001161561010002031660029004801561505c5780601f106150315761010080835404028352916020019161505c565b820191906000526020600020905b81548152906001019060200180831161503f57829003601f168201915b50505050509450838054600181600116156101000203166002900480601f0160208091040260200160405190810160405280929190818152602001828054600181600116156101000203166002900480156150f85780601f106150cd576101008083540402835291602001916150f8565b820191906000526020600020905b8154815290600101906020018083116150db57829003601f168201915b505050505093508292509650965096509650965096505091939550919395565b60005481565b600080600060076000868152602001908152602001600020600b0160009054906101000a900460ff1660ff1614151561516357336000819150809050915091506151de565b60076000858152602001908152602001600020600e01600084815260200190815260200160002060010160009054906101000a900473ffffffffffffffffffffffffffffffffffffffff1660076000868152602001908152602001600020600e01600085815260200190815260200160002060000154915091505b9250929050565b6000606080606080600080600080600080600860008e815260200190815260200160002060050160008d8152602001908152602001600020549a506000600760008d8152602001908152602001600020600b0160009054906101000a900460ff1660ff1614806152b65750600760008c815260200190815260200160002060060160009054906101000a900473ffffffffffffffffffffffffffffffffffffffff1673ffffffffffffffffffffffffffffffffffffffff163373ffffffffffffffffffffffffffffffffffffffff16145b156155e9576000600760008d8152602001908152602001600020905060008090505b816008015481101561530e5781600e016000828152602001908152602001600020600001548301925080806001019150506152d8565b508b81600001826001018360020184600301856004015486600501548760060160009054906101000a900473ffffffffffffffffffffffffffffffffffffffff16886007015489600801548b898054600181600116156101000203166002900480601f0160208091040260200160405190810160405280929190818152602001828054600181600116156101000203166002900480156153ef5780601f106153c4576101008083540402835291602001916153ef565b820191906000526020600020905b8154815290600101906020018083116153d257829003601f168201915b50505050509950888054600181600116156101000203166002900480601f01602080910402602001604051908101604052809291908181526020018280546001816001161561010002031660029004801561548b5780601f106154605761010080835404028352916020019161548b565b820191906000526020600020905b81548152906001019060200180831161546e57829003601f168201915b50505050509850878054600181600116156101000203166002900480601f0160208091040260200160405190810160405280929190818152602001828054600181600116156101000203166002900480156155275780601f106154fc57610100808354040283529160200191615527565b820191906000526020600020905b81548152906001019060200180831161550a57829003601f168201915b50505050509750868054600181600116156101000203166002900480601f0160208091040260200160405190810160405280929190818152602001828054600181600116156101000203166002900480156155c35780601f10615598576101008083540402835291602001916155c3565b820191906000526020600020905b8154815290600101906020018083116155a657829003601f168201915b505050505096508393509b509b509b509b509b509b509b509b509b509b509b50506155ea565b5b9295989b509295989b9093969950565b606060006005600084815260200190815260200160002060010160019054906101000a900460ff1660ff16148061569257506005600083815260200190815260200160002060010160029054906101000a900473ffffffffffffffffffffffffffffffffffffffff1673ffffffffffffffffffffffffffffffffffffffff163373ffffffffffffffffffffffffffffffffffffffff16145b15615753576000600560008481526020019081526020016000209050806000018054600181600116156101000203166002900480601f0160208091040260200160405190810160405280929190818152602001828054600181600116156101000203166002900480156157465780601f1061571b57610100808354040283529160200191615746565b820191906000526020600020905b81548152906001019060200180831161572957829003601f168201915b5050505050915050615754565b5b919050565b828054600181600116156101000203166002900490600052602060002090601f016020900481019282601f1061579a57805160ff19168380011785556157c8565b828001600101855582156157c8579182015b828111156157c75782518255916020019190600101906157ac565b5b5090506157d59190615859565b5090565b828054600181600116156101000203166002900490600052602060002090601f016020900481019282601f1061581a57805160ff1916838001178555615848565b82800160010185558215615848579182015b8281111561584757825182559160200191906001019061582c565b5b5090506158559190615859565b5090565b61587b91905b8082111561587757600081600090555060010161585f565b5090565b9056fea165627a7a72305820e61c9c51bae1b037619cf4774bc39d7ad8aabfdac17d26af79b8472527626d3a0029",
  "source": "pragma solidity >= 0.4.0 < 0.6.0;\n\ncontract VideoShare {\n    \n    struct User {\n        string nickname;\n        string profile;\n        string avatar;\n        uint videoNums;\n        mapping (uint => uint) videos;\n        mapping (uint => uint) txts;\n        mapping (uint => uint) pics;\n    }\n    struct Txt {\n        string content;\n        bool only;\n        uint8 permission;\n        address payable author;\n\n    }\n    struct Picture {\n        string pic;\n        bool only;\n        uint8 permission;\n        address payable author;\n        \n        \n    }\n    struct Video {\n        string title;\n        string cover;\n        string videoinfo;\n        string info;\n        uint duration;\n        uint timestamp;\n        address payable author;\n        uint commentsNum;\n        uint gratuityNum;\n        uint lableNum;\n        uint fileNum;\n        uint8 permission;\n        mapping (uint => Videofile) videofiles;\n        mapping (uint => Lable) lables;\n        mapping (uint => Gratuity) gratuitys;\n        mapping (uint => Comment) comments;\n    }\n    struct Comment {\n        string content;\n        uint timestamp;\n        uint videotimestamp;\n        address author;\n    }\n    struct Lable {\n        string lable;\n        uint times;\n    }\n    struct Gratuity {\n        uint gratuity;\n        address author;\n    }\n    struct Videofile {\n        string filename;\n        string fileinfo;\n        uint size;\n        uint32 width;\n        uint32 height;\n        uint32 fps;\n        uint8 filePermission;\n    }\n\n    struct Album {\n        string title;\n        string cover;\n        string info;\n        address payable author;\n        uint videoNum;\n        mapping (uint => uint) videos;\n    }\n    uint public txtNum;\n    uint public picNum;\n    uint public videoNum;\n    uint public albumNum;\n    mapping (address => User) users;\n    mapping (uint => Txt) txts;\n    mapping (uint => Picture) pics;\n    mapping (uint => Video) videos;\n    mapping (uint => Album) albums;\n    \n\n    function setMyInfo (string memory _nickname, string memory _profile, string memory _avatar) public {\n        users[msg.sender] = User(_nickname, _profile, _avatar, 0);\n    }\n    function setMyNickname (string memory _nickname) public {\n        users[msg.sender].nickname = _nickname;\n    }\n    function setMyProfile (string memory _profile) public {\n        users[msg.sender].profile = _profile;\n    }\n    function setMyAvatar (string memory _avatar) public {\n        users[msg.sender].avatar = _avatar;\n    }\n    function getUserInfo (address _userAdd) view public returns (string memory nickname, string memory profile, \n        string memory avatar, uint videoNums) {\n        return (users[_userAdd].nickname, users[_userAdd].profile, users[_userAdd].avatar, users[_userAdd].videoNums);\n    }\n    function setTxt (uint _txtId, string memory _content, bool _only,uint8 _permission) public {\n        if (msg.sender != txts[_txtId].author) return;\n        txts[_txtId].content = _content;\n        txts[_txtId].permission = _permission;\n    }\n    function getTxt (uint _txtId) view public returns (string memory content) {\n        if (txts[_txtId].permission == 0 || msg.sender == txts[_txtId].author) {\n            Txt storage _txt = txts[_txtId];\n            \n            return (_txt.content);\n        }\n    }\n    \n    function setPicture (uint _picId, string memory _pic, bool _only,uint8 _permission) public {\n        if (msg.sender != pics[_picId].author) return;\n        pics[_picId].pic = _pic;\n        pics[_picId].permission = _permission;\n    }\n    function getPicture (uint _picId) view public returns (string memory pic) {\n        if (pics[_picId].permission == 0 || msg.sender == pics[_picId].author) {\n            Picture storage _pic = pics[_picId];\n            \n            return (_pic.pic);\n        }\n    }\n\n    function publish (string memory _title, string memory _cover, string memory _videoinfo, string memory _info, \n        uint _duration, string memory _filename, string memory _fileinfo, uint _size, uint32 _width, uint32 _height, uint32 _fps) \n    public returns (uint videoId) {\n        videos[videoNum++] = Video(_title, _cover, _videoinfo, _info, _duration, now, msg.sender, 0, 0, 0, 0, 0);\n        videos[videoNum].videofiles[videos[videoNum].fileNum++] = Videofile(_filename, _fileinfo, _size, _width, _height, _fps, 0);\n        users[msg.sender].videos[users[msg.sender].videoNums++] = videoNum - 1;\n        return videoNum - 1;\n    }\n    function setVideoPermission (uint _videoId, uint8 _value) public {\n        if (msg.sender != videos[_videoId].author) return;\n        videos[_videoId].permission = _value;\n    }\n    function setVideo (uint _videoId, string memory _cover, string memory _videoinfo) public {\n        if (msg.sender != videos[_videoId].author) return;\n        videos[_videoId].cover = _cover;\n        videos[_videoId].videoinfo = _videoinfo;\n    }\n    function setVideoInfo (uint _videoId, string memory _title, string memory _info) public {\n        if (msg.sender != videos[_videoId].author) return;\n        videos[_videoId].title = _title;\n        videos[_videoId].info = _info;\n    }\n    function addVideofile (uint _videoId, string memory _filename, string memory _fileinfo, uint _size, uint32 _width, uint32 _height, uint32 _fps) public {\n        if (msg.sender != videos[_videoId].author) {\n            videos[_videoId].videofiles[videos[_videoId].fileNum++] = Videofile(_filename, _fileinfo, _size, _width, _height, _fps, 1);\n        } else {\n            videos[_videoId].videofiles[videos[_videoId].fileNum++] = Videofile(_filename, _fileinfo, _size, _width, _height, _fps, 0);\n        }\n    }\n    function setFilePermission (uint _videoId, uint _fileId, uint8 _value) public {\n        if (msg.sender == videos[_videoId].author) {\n            videos[_videoId].videofiles[_fileId].filePermission = _value;\n        }\n    }\n    function getVideo (uint _videoId) view public returns (string memory title, string memory cover, string memory videoinfo, string memory info, uint duration, uint timestamp, address author, uint commentsNum, uint gratuityNum, uint gratuitySum) {\n        if (videos[_videoId].permission == 0 || msg.sender == videos[_videoId].author) {\n            Video storage _video = videos[_videoId];\n            for (uint i = 0; i < _video.gratuityNum; i++) gratuitySum += _video.gratuitys[i].gratuity;\n            return (_video.title, _video.cover, _video.videoinfo, _video.info, _video.duration, _video.timestamp, _video.author, _video.commentsNum, _video.gratuityNum, gratuitySum);\n        }\n    }\n    function getVideoFile (uint _videoId, uint _fileId) view public returns (string memory filename, string memory fileinfo, uint size, uint32 width, uint32 height, uint32 fps, uint fileNum) {\n        if (videos[_videoId].permission != 0 && msg.sender == videos[_videoId].author || videos[_videoId].permission == 0 && videos[_videoId].videofiles[_fileId].filePermission == 0) {\n            Video storage _video = videos[_videoId];\n            Videofile storage _videofile = _video.videofiles[_fileId];\n            return (_videofile.filename, _videofile.fileinfo, _videofile.size, _videofile.width, _videofile.height, _videofile.fps, _video.fileNum);\n        } else {\n            return (\"\", \"\", 0, 0, 0, 0, videos[_videoId].fileNum);\n        }\n    }\n\n    function makeLable (uint _videoId, string memory _lable) public {\n        if (videos[_videoId].permission != 0) return;\n        Video storage _video = videos[_videoId];\n        for (uint i = 0; i < _video.lableNum; i++) {\n            if (keccak256(abi.encode(_video.lables[i].lable)) == keccak256(abi.encode(_lable))) {\n                _video.lables[i].times++;\n                return;\n            }\n        }\n        _video.lables[_video.lableNum++] = Lable(_lable, 1);\n    }\n    function getVideoLable (uint _videoId, uint _lableId) view public returns (string memory lable, uint times) {\n        if (videos[_videoId].permission != 0 && videos[_videoId].author != msg.sender) return (\"\", 0);\n        return (videos[_videoId].lables[_lableId].lable, videos[_videoId].lables[_lableId].times);\n    }\n    function makeComment (uint _videoId, uint _videotimestamp, string memory _comment) public {\n        if (videos[_videoId].permission != 0) return;\n        if (videos[_videoId].duration <= _videotimestamp) return;\n        videos[_videoId].comments[videos[_videoId].commentsNum++] = Comment(_comment, now, _videotimestamp, msg.sender);\n    }\n    function changeCommen (uint _videoId, uint _commentId, uint _videotimestamp, string memory _comment) public {\n        if (videos[_videoId].permission != 0) return;\n        if (videos[_videoId].duration <= _videotimestamp || videos[_videoId].comments[_commentId].author != msg.sender) return;\n        videos[_videoId].comments[_commentId].videotimestamp = _videotimestamp;\n        videos[_videoId].comments[_commentId].content = _comment;\n        videos[_videoId].comments[_commentId].videotimestamp = now;\n    }\n    function getVideoComment (uint _videoId, uint _commentId) view public returns (string memory content, uint timestamp, uint videotimestamp, address author) {\n        if (videos[_videoId].permission != 0 && videos[_videoId].author != msg.sender) return (\"\", 0, 0, msg.sender);\n        return (videos[_videoId].comments[_commentId].content, videos[_videoId].comments[_commentId].timestamp, videos[_videoId].comments[_commentId].videotimestamp, videos[_videoId].comments[_commentId].author);\n    }\n    function reward (uint _videoId) public payable {\n        if (videos[_videoId].permission != 0) return;\n        videos[_videoId].author.transfer(msg.value);\n        videos[_videoId].gratuitys[videos[_videoId].gratuityNum++] = Gratuity(msg.value, msg.sender);\n    }\n    function getGratuitys (uint _videoId, uint _gratuitysId) view public returns (address author, uint gratuity) {\n        if (videos[_videoId].permission != 0) return (msg.sender, 0);\n        return (videos[_videoId].gratuitys[_gratuitysId].author, videos[_videoId].gratuitys[_gratuitysId].gratuity);\n    }\n\n    function createAlbum (string memory _title, string memory _cover, string memory _info) public returns (uint albumnum) {\n        albums[albumNum++] = Album(_title, _cover, _info, msg.sender, 0);\n        return albumNum - 1;\n    }\n    function editAlbum (uint _albumId, string memory _title, string memory _cover, string memory _info) public {\n        if (msg.sender != albums[_albumId].author) return;\n        albums[_albumId].title = _title;\n        albums[_albumId].cover = _cover;\n        albums[_albumId].info = _info;\n    }\n    function createAlbumVideo (uint _albumId, uint _videoId) public returns (uint videonum) {\n        if (msg.sender != albums[_albumId].author) return (0);\n        albums[_albumId].videos[albums[_albumId].videoNum++] = _videoId;\n        return albums[_albumId].videoNum - 1;\n    }\n    function updateAlbumVideo (uint _albumId, uint _albumvideoId, uint _videoId) public {\n        if (msg.sender != albums[_albumId].author || albums[_albumId].videoNum <= _albumvideoId) return;\n        albums[_albumId].videos[_albumvideoId] = _videoId;\n    }\n    function getAlbum (uint _albumId) view public returns (string memory title, string memory cover, string memory info, address author, uint videonum, uint durationSum) {\n        Album storage _album = albums[_albumId];\n        for (uint i = 0; 0 < _album.videoNum; i++) {\n            if (videos[_album.videos[i]].permission == 0) {\n                durationSum += videos[_album.videos[i]].duration;\n            }\n        }\n        return (_album.title, _album.cover, _album.info, _album.author, _album.videoNum, durationSum);\n    }\n    function getAlbumVideo (uint _albumId, uint _videoId) view public returns (uint videoId, string memory title, string memory cover, string memory videoinfo, string memory info, uint duration, uint timestamp, address author, uint commentsNum, uint gratuityNum, uint gratuitySum) {\n        videoId = albums[_albumId].videos[_videoId];\n        if (videos[videoId].permission == 0 || msg.sender == videos[videoId].author) {\n            Video storage _video = videos[videoId];\n            for (uint i = 0; i < _video.gratuityNum; i++) gratuitySum += _video.gratuitys[i].gratuity;\n            return (videoId, _video.title, _video.cover, _video.videoinfo, _video.info, _video.duration, _video.timestamp, _video.author, _video.commentsNum, _video.gratuityNum, gratuitySum);\n        }\n    }\n}",
  "sourcePath": "G:/truffle_test/contracts/VideoShare.sol",
  "compiler": {
    "name": "solc",
    "version": "0.5.0+commit.1d4f565a.Emscripten.clang"
  },
  "schemaVersion": "3.0.6",
  "updatedAt": "2019-04-16T08:34:03.631Z",
  "devdoc": {
    "methods": {}
  },
  "userdoc": {
    "methods": {}
  }
}